{
  "contractName": "LoveDiaryLogicV0",
  "abi": [
    {
      "constant": true,
      "inputs": [],
      "name": "proxyOwner",
      "outputs": [
        {
          "name": "owner",
          "type": "address"
        }
      ],
      "payable": false,
      "stateMutability": "view",
      "type": "function"
    },
    {
      "constant": true,
      "inputs": [
        {
          "name": "",
          "type": "bytes32"
        }
      ],
      "name": "msgs",
      "outputs": [
        {
          "name": "sender",
          "type": "address"
        },
        {
          "name": "multihash",
          "type": "bytes"
        },
        {
          "name": "timestamp",
          "type": "uint32"
        },
        {
          "name": "ctype",
          "type": "uint256"
        },
        {
          "name": "mid",
          "type": "bytes32"
        }
      ],
      "payable": false,
      "stateMutability": "view",
      "type": "function"
    },
    {
      "constant": false,
      "inputs": [
        {
          "name": "implementation",
          "type": "address"
        }
      ],
      "name": "upgradeTo",
      "outputs": [],
      "payable": false,
      "stateMutability": "nonpayable",
      "type": "function"
    },
    {
      "constant": false,
      "inputs": [
        {
          "name": "implementation",
          "type": "address"
        },
        {
          "name": "data",
          "type": "bytes"
        }
      ],
      "name": "upgradeToAndCall",
      "outputs": [],
      "payable": true,
      "stateMutability": "payable",
      "type": "function"
    },
    {
      "constant": true,
      "inputs": [],
      "name": "implementation",
      "outputs": [
        {
          "name": "impl",
          "type": "address"
        }
      ],
      "payable": false,
      "stateMutability": "view",
      "type": "function"
    },
    {
      "constant": true,
      "inputs": [
        {
          "name": "",
          "type": "bytes32"
        }
      ],
      "name": "channels",
      "outputs": [
        {
          "name": "user1",
          "type": "address"
        },
        {
          "name": "user2",
          "type": "address"
        },
        {
          "name": "cid",
          "type": "bytes32"
        },
        {
          "name": "status",
          "type": "bool"
        },
        {
          "name": "timestamp",
          "type": "uint32"
        }
      ],
      "payable": false,
      "stateMutability": "view",
      "type": "function"
    },
    {
      "constant": true,
      "inputs": [
        {
          "name": "",
          "type": "address"
        },
        {
          "name": "",
          "type": "uint256"
        }
      ],
      "name": "invitations",
      "outputs": [
        {
          "name": "",
          "type": "bytes32"
        }
      ],
      "payable": false,
      "stateMutability": "view",
      "type": "function"
    },
    {
      "constant": true,
      "inputs": [
        {
          "name": "",
          "type": "address"
        }
      ],
      "name": "users",
      "outputs": [
        {
          "name": "nickname",
          "type": "bytes"
        },
        {
          "name": "status",
          "type": "bool"
        },
        {
          "name": "sex",
          "type": "bool"
        },
        {
          "name": "cid",
          "type": "bytes32"
        }
      ],
      "payable": false,
      "stateMutability": "view",
      "type": "function"
    },
    {
      "constant": false,
      "inputs": [
        {
          "name": "newOwner",
          "type": "address"
        }
      ],
      "name": "transferProxyOwnership",
      "outputs": [],
      "payable": false,
      "stateMutability": "nonpayable",
      "type": "function"
    },
    {
      "payable": true,
      "stateMutability": "payable",
      "type": "fallback"
    },
    {
      "anonymous": false,
      "inputs": [
        {
          "indexed": false,
          "name": "previousOwner",
          "type": "address"
        },
        {
          "indexed": false,
          "name": "newOwner",
          "type": "address"
        }
      ],
      "name": "ProxyOwnershipTransferred",
      "type": "event"
    },
    {
      "anonymous": false,
      "inputs": [
        {
          "indexed": true,
          "name": "implementation",
          "type": "address"
        }
      ],
      "name": "Upgraded",
      "type": "event"
    },
    {
      "constant": true,
      "inputs": [
        {
          "name": "addr",
          "type": "address"
        }
      ],
      "name": "get_user",
      "outputs": [
        {
          "components": [
            {
              "name": "nickname",
              "type": "bytes"
            },
            {
              "name": "status",
              "type": "bool"
            },
            {
              "name": "sex",
              "type": "bool"
            },
            {
              "name": "cid",
              "type": "bytes32"
            }
          ],
          "name": "",
          "type": "tuple"
        }
      ],
      "payable": false,
      "stateMutability": "view",
      "type": "function"
    },
    {
      "constant": true,
      "inputs": [
        {
          "name": "addr",
          "type": "address"
        }
      ],
      "name": "get_invitations",
      "outputs": [
        {
          "name": "",
          "type": "bytes32[]"
        }
      ],
      "payable": false,
      "stateMutability": "view",
      "type": "function"
    },
    {
      "constant": true,
      "inputs": [
        {
          "name": "cid",
          "type": "bytes32"
        }
      ],
      "name": "get_channel",
      "outputs": [
        {
          "components": [
            {
              "name": "user1",
              "type": "address"
            },
            {
              "name": "user2",
              "type": "address"
            },
            {
              "name": "cid",
              "type": "bytes32"
            },
            {
              "name": "status",
              "type": "bool"
            },
            {
              "name": "timestamp",
              "type": "uint32"
            },
            {
              "name": "msg_ids",
              "type": "bytes32[]"
            }
          ],
          "name": "",
          "type": "tuple"
        }
      ],
      "payable": false,
      "stateMutability": "view",
      "type": "function"
    },
    {
      "constant": false,
      "inputs": [
        {
          "name": "addr",
          "type": "address"
        },
        {
          "name": "nickname",
          "type": "bytes"
        }
      ],
      "name": "set_nickname",
      "outputs": [],
      "payable": false,
      "stateMutability": "nonpayable",
      "type": "function"
    },
    {
      "constant": false,
      "inputs": [
        {
          "name": "addr",
          "type": "address"
        },
        {
          "name": "status",
          "type": "bool"
        }
      ],
      "name": "set_status",
      "outputs": [],
      "payable": false,
      "stateMutability": "nonpayable",
      "type": "function"
    },
    {
      "constant": false,
      "inputs": [
        {
          "name": "addr",
          "type": "address"
        },
        {
          "name": "sex",
          "type": "bool"
        }
      ],
      "name": "set_sex",
      "outputs": [],
      "payable": false,
      "stateMutability": "nonpayable",
      "type": "function"
    },
    {
      "constant": false,
      "inputs": [
        {
          "name": "addr",
          "type": "address"
        },
        {
          "name": "nickname",
          "type": "bytes"
        },
        {
          "name": "status",
          "type": "bool"
        },
        {
          "name": "sex",
          "type": "bool"
        }
      ],
      "name": "register_user",
      "outputs": [],
      "payable": false,
      "stateMutability": "nonpayable",
      "type": "function"
    },
    {
      "constant": false,
      "inputs": [
        {
          "name": "user2",
          "type": "address"
        },
        {
          "name": "timestamp",
          "type": "uint32"
        }
      ],
      "name": "register_channel",
      "outputs": [
        {
          "name": "",
          "type": "bool"
        }
      ],
      "payable": false,
      "stateMutability": "nonpayable",
      "type": "function"
    },
    {
      "constant": false,
      "inputs": [
        {
          "name": "cid",
          "type": "bytes32"
        }
      ],
      "name": "delete_channel",
      "outputs": [
        {
          "name": "",
          "type": "bool"
        }
      ],
      "payable": false,
      "stateMutability": "nonpayable",
      "type": "function"
    },
    {
      "constant": false,
      "inputs": [
        {
          "name": "cid",
          "type": "bytes32"
        }
      ],
      "name": "approve_channel",
      "outputs": [
        {
          "name": "",
          "type": "bool"
        }
      ],
      "payable": false,
      "stateMutability": "nonpayable",
      "type": "function"
    },
    {
      "constant": false,
      "inputs": [
        {
          "name": "multihash",
          "type": "bytes"
        },
        {
          "name": "timestamp",
          "type": "uint32"
        },
        {
          "name": "ctype",
          "type": "uint256"
        }
      ],
      "name": "send_msg",
      "outputs": [
        {
          "name": "",
          "type": "bool"
        }
      ],
      "payable": false,
      "stateMutability": "nonpayable",
      "type": "function"
    }
  ],
  "bytecode": "0x608060405261001c33610021640100000000026401000000009004565b610062565b600060405180807f6f72672e7a657070656c696e6f732e70726f78792e6f776e6572000000000000815250601a019050604051809103902090508181555050565b612760806100716000396000f300608060405260043610610112576000357c0100000000000000000000000000000000000000000000000000000000900463ffffffff168063025313a2146101815780630fa42bda146101ac5780631fe14c4a146101ed5780633659cfe6146102165780633b4e84811461023f578063403320d31461027c5780634f1ef286146102a55780635c60da1b146102c157806368cdf5e2146102ec57806371ad7221146103295780637599303e146103665780637a7ebd7b1461038f5780638bbd254e146103d05780638ffb72f41461040d578063a87430ba1461044a578063ad72b2db1461048a578063ce45d987146104c7578063e58fb45214610504578063f1739cae1461052d578063f71b767f14610556575b600061011c610593565b9050600073ffffffffffffffffffffffffffffffffffffffff168173ffffffffffffffffffffffffffffffffffffffff161415151561015a57600080fd5b60405136600082376000803683855af43d806000843e816000811461017d578184f35b8184fd5b34801561018d57600080fd5b506101966105fc565b6040516101a391906123ac565b60405180910390f35b3480156101b857600080fd5b506101d360048036036101ce91908101906120f9565b61063f565b6040516101e4959493929190612443565b60405180910390f35b3480156101f957600080fd5b50610214600480360361020f9190810190611fb2565b61073d565b005b34801561022257600080fd5b5061023d60048036036102389190810190611f4d565b610797565b005b34801561024b57600080fd5b50610266600480360361026191908101906120f9565b6107e4565b6040516102739190612541565b60405180910390f35b34801561028857600080fd5b506102a3600480360361029e9190810190612006565b610975565b005b6102bf60048036036102ba9190810190611fb2565b610ad1565b005b3480156102cd57600080fd5b506102d6610593565b6040516102e391906123ac565b60405180910390f35b3480156102f857600080fd5b50610313600480360361030e91908101906120bd565b610bb2565b60405161032091906124bf565b60405180910390f35b34801561033557600080fd5b50610350600480360361034b9190810190611f4d565b610fbc565b60405161035d9190612563565b60405180910390f35b34801561037257600080fd5b5061038d60048036036103889190810190611f76565b6110ff565b005b34801561039b57600080fd5b506103b660048036036103b191908101906120f9565b61115c565b6040516103c79594939291906123f0565b60405180910390f35b3480156103dc57600080fd5b506103f760048036036103f291908101906120f9565b6111ef565b60405161040491906124bf565b60405180910390f35b34801561041957600080fd5b50610434600480360361042f9190810190612081565b611391565b60405161044191906124da565b60405180910390f35b34801561045657600080fd5b50610471600480360361046c9190810190611f4d565b6113c1565b60405161048194939291906124f5565b60405180910390f35b34801561049657600080fd5b506104b160048036036104ac9190810190611f4d565b6114a3565b6040516104be919061249d565b60405180910390f35b3480156104d357600080fd5b506104ee60048036036104e99190810190612122565b61153e565b6040516104fb91906124bf565b60405180910390f35b34801561051057600080fd5b5061052b60048036036105269190810190611f76565b61183b565b005b34801561053957600080fd5b50610554600480360361054f9190810190611f4d565b611898565b005b34801561056257600080fd5b5061057d600480360361057891908101906120f9565b611961565b60405161058a91906124bf565b60405180910390f35b60008060405180807f6f72672e7a657070656c696e6f732e70726f78792e696d706c656d656e74617481526020017f696f6e0000000000000000000000000000000000000000000000000000000000815250602301905060405180910390209050805491505090565b60008060405180807f6f72672e7a657070656c696e6f732e70726f78792e6f776e6572000000000000815250601a01905060405180910390209050805491505090565b60026020528060005260406000206000915090508060000160009054906101000a900473ffffffffffffffffffffffffffffffffffffffff1690806001018054600181600116156101000203166002900480601f0160208091040260200160405190810160405280929190818152602001828054600181600116156101000203166002900480156107115780601f106106e657610100808354040283529160200191610711565b820191906000526020600020905b8154815290600101906020018083116106f457829003601f168201915b5050505050908060020160009054906101000a900463ffffffff16908060030154908060040154905085565b806000808473ffffffffffffffffffffffffffffffffffffffff1673ffffffffffffffffffffffffffffffffffffffff1681526020019081526020016000206000019080519060200190610792929190611be8565b505050565b61079f6105fc565b73ffffffffffffffffffffffffffffffffffffffff163373ffffffffffffffffffffffffffffffffffffffff161415156107d857600080fd5b6107e181611aa9565b50565b6107ec611c68565b60016000836000191660001916815260200190815260200160002060c060405190810160405290816000820160009054906101000a900473ffffffffffffffffffffffffffffffffffffffff1673ffffffffffffffffffffffffffffffffffffffff1673ffffffffffffffffffffffffffffffffffffffff1681526020016001820160009054906101000a900473ffffffffffffffffffffffffffffffffffffffff1673ffffffffffffffffffffffffffffffffffffffff1673ffffffffffffffffffffffffffffffffffffffff1681526020016002820154600019166000191681526020016003820160009054906101000a900460ff161515151581526020016003820160019054906101000a900463ffffffff1663ffffffff1663ffffffff1681526020016004820180548060200260200160405190810160405280929190818152602001828054801561096557602002820191906000526020600020905b8154600019168152602001906001019080831161094d575b5050505050815250509050919050565b826000808673ffffffffffffffffffffffffffffffffffffffff1673ffffffffffffffffffffffffffffffffffffffff16815260200190815260200160002060000190805190602001906109ca929190611be8565b50816000808673ffffffffffffffffffffffffffffffffffffffff1673ffffffffffffffffffffffffffffffffffffffff16815260200190815260200160002060010160006101000a81548160ff021916908315150217905550806000808673ffffffffffffffffffffffffffffffffffffffff1673ffffffffffffffffffffffffffffffffffffffff16815260200190815260200160002060010160016101000a81548160ff02191690831515021790555060006001026000808673ffffffffffffffffffffffffffffffffffffffff1673ffffffffffffffffffffffffffffffffffffffff168152602001908152602001600020600201816000191690555050505050565b610ad96105fc565b73ffffffffffffffffffffffffffffffffffffffff163373ffffffffffffffffffffffffffffffffffffffff16141515610b1257600080fd5b610b1b82610797565b3073ffffffffffffffffffffffffffffffffffffffff16348260405180828051906020019080838360005b83811015610b61578082015181840152602081019050610b46565b50505050905090810190601f168015610b8e5780820380516001836020036101000a031916815260200191505b5091505060006040518083038185875af1925050501515610bae57600080fd5b5050565b6000610bbc611c68565b60006001026000803373ffffffffffffffffffffffffffffffffffffffff1673ffffffffffffffffffffffffffffffffffffffff1681526020019081526020016000206002015460001916141515610c1357600080fd5b33816000019073ffffffffffffffffffffffffffffffffffffffff16908173ffffffffffffffffffffffffffffffffffffffff168152505083816020019073ffffffffffffffffffffffffffffffffffffffff16908173ffffffffffffffffffffffffffffffffffffffff168152505080600001518160200151604051602001808373ffffffffffffffffffffffffffffffffffffffff1673ffffffffffffffffffffffffffffffffffffffff166c010000000000000000000000000281526014018273ffffffffffffffffffffffffffffffffffffffff1673ffffffffffffffffffffffffffffffffffffffff166c01000000000000000000000000028152601401925050506040516020818303038152906040526040518082805190602001908083835b602083101515610d5e5780518252602082019150602081019050602083039250610d39565b6001836020036101000a038019825116818451168082178552505050505050905001915050604051809103902081604001906000191690816000191681525050600081606001901515908115158152505082816080019063ffffffff16908163ffffffff1681525050806001600083604001516000191660001916815260200190815260200160002060008201518160000160006101000a81548173ffffffffffffffffffffffffffffffffffffffff021916908373ffffffffffffffffffffffffffffffffffffffff16021790555060208201518160010160006101000a81548173ffffffffffffffffffffffffffffffffffffffff021916908373ffffffffffffffffffffffffffffffffffffffff1602179055506040820151816002019060001916905560608201518160030160006101000a81548160ff02191690831515021790555060808201518160030160016101000a81548163ffffffff021916908363ffffffff16021790555060a0820151816004019080519060200190610ee8929190611cd6565b5090505080604001516000803373ffffffffffffffffffffffffffffffffffffffff1673ffffffffffffffffffffffffffffffffffffffff168152602001908152602001600020600201816000191690555060036000826020015173ffffffffffffffffffffffffffffffffffffffff1673ffffffffffffffffffffffffffffffffffffffff16815260200190815260200160002081604001519080600181540180825580915050906001820390600052602060002001600090919290919091509060001916905550600191505092915050565b610fc4611d29565b6000808373ffffffffffffffffffffffffffffffffffffffff1673ffffffffffffffffffffffffffffffffffffffff16815260200190815260200160002060806040519081016040529081600082018054600181600116156101000203166002900480601f0160208091040260200160405190810160405280929190818152602001828054600181600116156101000203166002900480156110a75780601f1061107c576101008083540402835291602001916110a7565b820191906000526020600020905b81548152906001019060200180831161108a57829003601f168201915b505050505081526020016001820160009054906101000a900460ff161515151581526020016001820160019054906101000a900460ff1615151515815260200160028201546000191660001916815250509050919050565b806000808473ffffffffffffffffffffffffffffffffffffffff1673ffffffffffffffffffffffffffffffffffffffff16815260200190815260200160002060010160016101000a81548160ff0219169083151502179055505050565b60016020528060005260406000206000915090508060000160009054906101000a900473ffffffffffffffffffffffffffffffffffffffff16908060010160009054906101000a900473ffffffffffffffffffffffffffffffffffffffff16908060020154908060030160009054906101000a900460ff16908060030160019054906101000a900463ffffffff16905085565b60003373ffffffffffffffffffffffffffffffffffffffff1660016000846000191660001916815260200190815260200160002060010160009054906101000a900473ffffffffffffffffffffffffffffffffffffffff1673ffffffffffffffffffffffffffffffffffffffff161480156112b2575060006001026000803373ffffffffffffffffffffffffffffffffffffffff1673ffffffffffffffffffffffffffffffffffffffff1681526020019081526020016000206002015460001916145b15156112bd57600080fd5b6001806000846000191660001916815260200190815260200160002060030160006101000a81548160ff021916908315150217905550816000803373ffffffffffffffffffffffffffffffffffffffff1673ffffffffffffffffffffffffffffffffffffffff1681526020019081526020016000206002018160001916905550600360003373ffffffffffffffffffffffffffffffffffffffff1673ffffffffffffffffffffffffffffffffffffffff16815260200190815260200160002060006113889190611d59565b60019050919050565b6003602052816000526040600020818154811015156113ac57fe5b90600052602060002001600091509150505481565b6000602052806000526040600020600091509050806000018054600181600116156101000203166002900480601f01602080910402602001604051908101604052809291908181526020018280546001816001161561010002031660029004801561146d5780601f106114425761010080835404028352916020019161146d565b820191906000526020600020905b81548152906001019060200180831161145057829003601f168201915b5050505050908060010160009054906101000a900460ff16908060010160019054906101000a900460ff16908060020154905084565b6060600360008373ffffffffffffffffffffffffffffffffffffffff1673ffffffffffffffffffffffffffffffffffffffff16815260200190815260200160002080548060200260200160405190810160405280929190818152602001828054801561153257602002820191906000526020600020905b8154600019168152602001906001019080831161151a575b50505050509050919050565b6000611548611d7a565b60006001026000803373ffffffffffffffffffffffffffffffffffffffff1673ffffffffffffffffffffffffffffffffffffffff1681526020019081526020016000206002015460001916141515156115a057600080fd5b33816000019073ffffffffffffffffffffffffffffffffffffffff16908173ffffffffffffffffffffffffffffffffffffffff168152505084816020018190525083816040019063ffffffff16908163ffffffff168152505082816060018181525050806000015181602001518260400151604051602001808473ffffffffffffffffffffffffffffffffffffffff1673ffffffffffffffffffffffffffffffffffffffff166c0100000000000000000000000002815260140183805190602001908083835b60208310151561168b5780518252602082019150602081019050602083039250611666565b6001836020036101000a0380198251168184511680821785525050505050509050018263ffffffff1663ffffffff167c010000000000000000000000000000000000000000000000000000000002815260040193505050506040516020818303038152906040526040518082805190602001908083835b6020831015156117275780518252602082019150602081019050602083039250611702565b6001836020036101000a038019825116818451168082178552505050505050905001915050604051809103902081608001906000191690816000191681525050806002600083608001516000191660001916815260200190815260200160002060008201518160000160006101000a81548173ffffffffffffffffffffffffffffffffffffffff021916908373ffffffffffffffffffffffffffffffffffffffff16021790555060208201518160010190805190602001906117ea929190611dc9565b5060408201518160020160006101000a81548163ffffffff021916908363ffffffff160217905550606082015181600301556080820151816004019060001916905590505060019150509392505050565b806000808473ffffffffffffffffffffffffffffffffffffffff1673ffffffffffffffffffffffffffffffffffffffff16815260200190815260200160002060010160006101000a81548160ff0219169083151502179055505050565b6118a06105fc565b73ffffffffffffffffffffffffffffffffffffffff163373ffffffffffffffffffffffffffffffffffffffff161415156118d957600080fd5b600073ffffffffffffffffffffffffffffffffffffffff168173ffffffffffffffffffffffffffffffffffffffff161415151561191557600080fd5b7f5a3e66efaa1e445ebd894728a69d6959842ea1e97bd79b892797106e270efcd961193e6105fc565b8260405161194d9291906123c7565b60405180910390a161195e81611b40565b50565b60008060016000846000191660001916815260200190815260200160002060030160006101000a81548160ff021916908315150217905515156119a357600080fd5b600160008360001916600019168152602001908152602001600020600080820160006101000a81549073ffffffffffffffffffffffffffffffffffffffff02191690556001820160006101000a81549073ffffffffffffffffffffffffffffffffffffffff021916905560028201600090556003820160006101000a81549060ff02191690556003820160016101000a81549063ffffffff0219169055600482016000611a509190611d59565b505060006001026000803373ffffffffffffffffffffffffffffffffffffffff1673ffffffffffffffffffffffffffffffffffffffff168152602001908152602001600020600201816000191690555060019050919050565b6000611ab3610593565b90508173ffffffffffffffffffffffffffffffffffffffff168173ffffffffffffffffffffffffffffffffffffffff1614151515611af057600080fd5b611af982611b81565b8173ffffffffffffffffffffffffffffffffffffffff167fbc7cd75a20ee27fd9adebab32041f755214dbc6bffa90cc0225b39da2e5c2d3b60405160405180910390a25050565b600060405180807f6f72672e7a657070656c696e6f732e70726f78792e6f776e6572000000000000815250601a019050604051809103902090508181555050565b600060405180807f6f72672e7a657070656c696e6f732e70726f78792e696d706c656d656e74617481526020017f696f6e00000000000000000000000000000000000000000000000000000000008152506023019050604051809103902090508181555050565b828054600181600116156101000203166002900490600052602060002090601f016020900481019282601f10611c2957805160ff1916838001178555611c57565b82800160010185558215611c57579182015b82811115611c56578251825591602001919060010190611c3b565b5b509050611c649190611e49565b5090565b60c060405190810160405280600073ffffffffffffffffffffffffffffffffffffffff168152602001600073ffffffffffffffffffffffffffffffffffffffff16815260200160008019168152602001600015158152602001600063ffffffff168152602001606081525090565b828054828255906000526020600020908101928215611d18579160200282015b82811115611d17578251829060001916905591602001919060010190611cf6565b5b509050611d259190611e6e565b5090565b60806040519081016040528060608152602001600015158152602001600015158152602001600080191681525090565b5080546000825590600052602060002090810190611d779190611e6e565b50565b60a060405190810160405280600073ffffffffffffffffffffffffffffffffffffffff16815260200160608152602001600063ffffffff16815260200160008152602001600080191681525090565b828054600181600116156101000203166002900490600052602060002090601f016020900481019282601f10611e0a57805160ff1916838001178555611e38565b82800160010185558215611e38579182015b82811115611e37578251825591602001919060010190611e1c565b5b509050611e459190611e49565b5090565b611e6b91905b80821115611e67576000816000905550600101611e4f565b5090565b90565b611e9091905b80821115611e8c576000816000905550600101611e74565b5090565b90565b6000611e9f8235612683565b905092915050565b6000611eb382356126a3565b905092915050565b6000611ec782356126af565b905092915050565b600082601f8301121515611ee257600080fd5b8135611ef5611ef0826125b2565b612585565b91508082526020830160208301858383011115611f1157600080fd5b611f1c8382846126d3565b50505092915050565b6000611f3182356126b9565b905092915050565b6000611f4582356126c3565b905092915050565b600060208284031215611f5f57600080fd5b6000611f6d84828501611e93565b91505092915050565b60008060408385031215611f8957600080fd5b6000611f9785828601611e93565b9250506020611fa885828601611ea7565b9150509250929050565b60008060408385031215611fc557600080fd5b6000611fd385828601611e93565b925050602083013567ffffffffffffffff811115611ff057600080fd5b611ffc85828601611ecf565b9150509250929050565b6000806000806080858703121561201c57600080fd5b600061202a87828801611e93565b945050602085013567ffffffffffffffff81111561204757600080fd5b61205387828801611ecf565b935050604061206487828801611ea7565b925050606061207587828801611ea7565b91505092959194509250565b6000806040838503121561209457600080fd5b60006120a285828601611e93565b92505060206120b385828601611f25565b9150509250929050565b600080604083850312156120d057600080fd5b60006120de85828601611e93565b92505060206120ef85828601611f39565b9150509250929050565b60006020828403121561210b57600080fd5b600061211984828501611ebb565b91505092915050565b60008060006060848603121561213757600080fd5b600084013567ffffffffffffffff81111561215157600080fd5b61215d86828701611ecf565b935050602061216e86828701611f39565b925050604061217f86828701611f25565b9150509250925092565b61219281612633565b82525050565b60006121a382612603565b8084526020840193506121b5836125eb565b60005b828110156121e7576121cb86835161225d565b6121d482612626565b91506020860195506001810190506121b8565b50849250505092915050565b60006121fe826125f8565b808452602084019350612210836125de565b60005b828110156122425761222686835161225d565b61222f82612619565b9150602086019550600181019050612213565b50849250505092915050565b61225781612653565b82525050565b6122668161265f565b82525050565b60006122778261260e565b80845261228b8160208601602086016126e2565b61229481612715565b602085010191505092915050565b600060c0830160008301516122ba6000860182612189565b5060208301516122cd6020860182612189565b5060408301516122e0604086018261225d565b5060608301516122f3606086018261224e565b506080830151612306608086018261239d565b5060a083015184820360a086015261231e82826121f3565b9150508091505092915050565b60006080830160008301518482036000860152612348828261226c565b915050602083015161235d602086018261224e565b506040830151612370604086018261224e565b506060830151612383606086018261225d565b508091505092915050565b61239781612669565b82525050565b6123a681612673565b82525050565b60006020820190506123c16000830184612189565b92915050565b60006040820190506123dc6000830185612189565b6123e96020830184612189565b9392505050565b600060a0820190506124056000830188612189565b6124126020830187612189565b61241f604083018661225d565b61242c606083018561224e565b612439608083018461239d565b9695505050505050565b600060a0820190506124586000830188612189565b818103602083015261246a818761226c565b9050612479604083018661239d565b612486606083018561238e565b612493608083018461225d565b9695505050505050565b600060208201905081810360008301526124b78184612198565b905092915050565b60006020820190506124d4600083018461224e565b92915050565b60006020820190506124ef600083018461225d565b92915050565b6000608082019050818103600083015261250f818761226c565b905061251e602083018661224e565b61252b604083018561224e565b612538606083018461225d565b95945050505050565b6000602082019050818103600083015261255b81846122a2565b905092915050565b6000602082019050818103600083015261257d818461232b565b905092915050565b6000604051905081810181811067ffffffffffffffff821117156125a857600080fd5b8060405250919050565b600067ffffffffffffffff8211156125c957600080fd5b601f19601f8301169050602081019050919050565b6000602082019050919050565b6000602082019050919050565b600081519050919050565b600081519050919050565b600081519050919050565b6000602082019050919050565b6000602082019050919050565b600073ffffffffffffffffffffffffffffffffffffffff82169050919050565b60008115159050919050565b6000819050919050565b6000819050919050565b600063ffffffff82169050919050565b600073ffffffffffffffffffffffffffffffffffffffff82169050919050565b60008115159050919050565b6000819050919050565b6000819050919050565b600063ffffffff82169050919050565b82818337600083830152505050565b60005b838110156127005780820151818401526020810190506126e5565b8381111561270f576000848401525b50505050565b6000601f19601f83011690509190505600a265627a7a7230582085ff152dcb040f044edfa99aa911db7b931f6cd99b20abec400c9c54c16a66e36c6578706572696d656e74616cf50037",
  "source": "pragma solidity >= 0.4.24;\npragma experimental ABIEncoderV2;\n\nimport \"./LoveDiaryStorage.sol\";\n\ncontract LoveDiaryLogicV0 is LoveDiaryStorage {\n\t\n\t// getters\n\tfunction get_user(address addr) public view returns (User) {\n\t\treturn users[addr];\n\t}\n\n\tfunction get_invitations(address addr) public view returns (bytes32[]) {\n\t\treturn invitations[addr];\n\t}\n\n\tfunction get_channel(bytes32 cid) public view returns (Channel) {\n\t\treturn channels[cid];\n\t}\n\n\t// setters\n\tfunction set_nickname(address addr, bytes nickname) public {\n\t\tusers[addr].nickname = nickname;\n\t}\n\n\tfunction set_status(address addr, bool status) public {\n\t\tusers[addr].status = status;\n\t}\n\n\tfunction set_sex(address addr, bool sex) public {\n\t\tusers[addr].sex = sex;\n\t}\n\n\tfunction register_user(address addr, bytes nickname, bool status, bool sex) public {\n\t\tusers[addr].nickname = nickname;\n\t\tusers[addr].status = status;\n\t\tusers[addr].sex = sex;\n\t\tusers[addr].cid = 0x0;\n\t}\n\n\t// logic\n\t// register channel\n\tfunction register_channel(address user2, uint32 timestamp) public returns (bool) {\n\t\trequire(users[msg.sender].cid == 0x0);\n\n\t\tChannel memory c;\n\t\tc.user1 = msg.sender;\n\t\tc.user2 = user2;\n\t\tc.cid = keccak256(abi.encodePacked(c.user1, c.user2));\n\t\tc.status = false;\n\t\tc.timestamp = timestamp;\n\n\t\tchannels[c.cid] = c;\n\t\tusers[msg.sender].cid = c.cid;\n\n\t\tinvitations[c.user2].push(c.cid);\n\t\treturn true;\n\t}\n\n\t// delete inactive channel(not approved by user2)\n\tfunction delete_channel(bytes32 cid) public returns (bool) {\n\t\trequire(channels[cid].status = false);\n\t\tdelete channels[cid];\n\t\tusers[msg.sender].cid = 0x0;\n\t\treturn true;\n\t}\n\n\t// approve invitation\n\tfunction approve_channel(bytes32 cid) public returns (bool) {\n\t\trequire(channels[cid].user2 == msg.sender && users[msg.sender].cid == 0x0);\n\n\t\tchannels[cid].status = true;\n\t\tusers[msg.sender].cid = cid;\n\t\tdelete invitations[msg.sender];\n\t\treturn true;\n\t}\n\n\t// send message\n\tfunction send_msg(bytes multihash, uint32 timestamp, uint ctype) public returns (bool) {\n\t\trequire(users[msg.sender].cid != 0x0);\n\n\t\tMessage memory m;\n\t\tm.sender = msg.sender;\n\t\tm.multihash = multihash;\n\t\tm.timestamp = timestamp;\n\t\tm.ctype = ctype;\n\t\tm.mid = keccak256(abi.encodePacked(m.sender, m.multihash, m.timestamp));\n\n\t\tmsgs[m.mid] = m;\n\t\treturn true;\n\t}\n}\n",
  "sourcePath": "/Users/cyan/Desktop//lovediary/contracts/contracts/LoveDiaryLogicV0.sol",
  "compiler": {
    "name": "solc",
    "version": "0.4.24+commit.e67f0147.Emscripten.clang"
  },
  "schemaVersion": "3.0.16",
  "updatedAt": "2019-12-24T07:57:30.379Z",
  "devdoc": {
    "methods": {
      "implementation()": {
        "details": "Tells the address of the current implementation",
        "return": "address of the current implementation"
      },
      "proxyOwner()": {
        "details": "Tells the address of the owner",
        "return": "the address of the owner"
      },
      "transferProxyOwnership(address)": {
        "details": "Allows the current owner to transfer control of the contract to a newOwner.",
        "params": {
          "newOwner": "The address to transfer ownership to."
        }
      },
      "upgradeTo(address)": {
        "details": "Allows the proxy owner to upgrade the current version of the proxy.",
        "params": {
          "implementation": "representing the address of the new implementation to be set."
        }
      },
      "upgradeToAndCall(address,bytes)": {
        "details": "Allows the proxy owner to upgrade the current version of the proxy and call the new implementation to initialize whatever is needed through a low level call.",
        "params": {
          "data": "represents the msg.data to bet sent in the low level call. This parameter may include the function signature of the implementation to be called with the needed payload",
          "implementation": "representing the address of the new implementation to be set."
        }
      }
    }
  },
  "userdoc": {
    "methods": {}
  }
}