{
  "contractName": "LoveDiaryLogicV0",
  "abi": [
    {
      "constant": true,
      "inputs": [],
      "name": "proxyOwner",
      "outputs": [
        {
          "name": "owner",
          "type": "address"
        }
      ],
      "payable": false,
      "stateMutability": "view",
      "type": "function"
    },
    {
      "constant": true,
      "inputs": [
        {
          "name": "",
          "type": "bytes32"
        }
      ],
      "name": "msgs",
      "outputs": [
        {
          "name": "sender",
          "type": "address"
        },
        {
          "name": "multihash",
          "type": "bytes"
        },
        {
          "name": "timestamp",
          "type": "uint32"
        },
        {
          "name": "ctype",
          "type": "uint256"
        },
        {
          "name": "mid",
          "type": "bytes32"
        }
      ],
      "payable": false,
      "stateMutability": "view",
      "type": "function"
    },
    {
      "constant": false,
      "inputs": [
        {
          "name": "implementation",
          "type": "address"
        }
      ],
      "name": "upgradeTo",
      "outputs": [],
      "payable": false,
      "stateMutability": "nonpayable",
      "type": "function"
    },
    {
      "constant": false,
      "inputs": [
        {
          "name": "implementation",
          "type": "address"
        },
        {
          "name": "data",
          "type": "bytes"
        }
      ],
      "name": "upgradeToAndCall",
      "outputs": [],
      "payable": true,
      "stateMutability": "payable",
      "type": "function"
    },
    {
      "constant": true,
      "inputs": [],
      "name": "implementation",
      "outputs": [
        {
          "name": "impl",
          "type": "address"
        }
      ],
      "payable": false,
      "stateMutability": "view",
      "type": "function"
    },
    {
      "constant": true,
      "inputs": [
        {
          "name": "",
          "type": "bytes32"
        }
      ],
      "name": "channels",
      "outputs": [
        {
          "name": "user1",
          "type": "address"
        },
        {
          "name": "user2",
          "type": "address"
        },
        {
          "name": "cid",
          "type": "bytes32"
        },
        {
          "name": "status",
          "type": "bool"
        },
        {
          "name": "timestamp",
          "type": "uint32"
        }
      ],
      "payable": false,
      "stateMutability": "view",
      "type": "function"
    },
    {
      "constant": true,
      "inputs": [
        {
          "name": "",
          "type": "address"
        },
        {
          "name": "",
          "type": "uint256"
        }
      ],
      "name": "invitations",
      "outputs": [
        {
          "name": "",
          "type": "bytes32"
        }
      ],
      "payable": false,
      "stateMutability": "view",
      "type": "function"
    },
    {
      "constant": true,
      "inputs": [
        {
          "name": "",
          "type": "address"
        }
      ],
      "name": "users",
      "outputs": [
        {
          "name": "nickname",
          "type": "bytes"
        },
        {
          "name": "status",
          "type": "bool"
        },
        {
          "name": "sex",
          "type": "bool"
        },
        {
          "name": "cid",
          "type": "bytes32"
        }
      ],
      "payable": false,
      "stateMutability": "view",
      "type": "function"
    },
    {
      "constant": false,
      "inputs": [
        {
          "name": "newOwner",
          "type": "address"
        }
      ],
      "name": "transferProxyOwnership",
      "outputs": [],
      "payable": false,
      "stateMutability": "nonpayable",
      "type": "function"
    },
    {
      "payable": true,
      "stateMutability": "payable",
      "type": "fallback"
    },
    {
      "anonymous": false,
      "inputs": [
        {
          "indexed": false,
          "name": "previousOwner",
          "type": "address"
        },
        {
          "indexed": false,
          "name": "newOwner",
          "type": "address"
        }
      ],
      "name": "ProxyOwnershipTransferred",
      "type": "event"
    },
    {
      "anonymous": false,
      "inputs": [
        {
          "indexed": true,
          "name": "implementation",
          "type": "address"
        }
      ],
      "name": "Upgraded",
      "type": "event"
    },
    {
      "constant": true,
      "inputs": [
        {
          "name": "addr",
          "type": "address"
        }
      ],
      "name": "get_user",
      "outputs": [
        {
          "components": [
            {
              "name": "nickname",
              "type": "bytes"
            },
            {
              "name": "status",
              "type": "bool"
            },
            {
              "name": "sex",
              "type": "bool"
            },
            {
              "name": "cid",
              "type": "bytes32"
            }
          ],
          "name": "",
          "type": "tuple"
        }
      ],
      "payable": false,
      "stateMutability": "view",
      "type": "function"
    },
    {
      "constant": true,
      "inputs": [
        {
          "name": "addr",
          "type": "address"
        }
      ],
      "name": "get_invitations",
      "outputs": [
        {
          "name": "",
          "type": "bytes32[]"
        }
      ],
      "payable": false,
      "stateMutability": "view",
      "type": "function"
    },
    {
      "constant": true,
      "inputs": [
        {
          "name": "cid",
          "type": "bytes32"
        }
      ],
      "name": "get_channel",
      "outputs": [
        {
          "components": [
            {
              "name": "user1",
              "type": "address"
            },
            {
              "name": "user2",
              "type": "address"
            },
            {
              "name": "cid",
              "type": "bytes32"
            },
            {
              "name": "status",
              "type": "bool"
            },
            {
              "name": "timestamp",
              "type": "uint32"
            },
            {
              "name": "msg_ids",
              "type": "bytes32[]"
            }
          ],
          "name": "",
          "type": "tuple"
        }
      ],
      "payable": false,
      "stateMutability": "view",
      "type": "function"
    },
    {
      "constant": true,
      "inputs": [
        {
          "name": "mid",
          "type": "bytes32"
        }
      ],
      "name": "get_msg",
      "outputs": [
        {
          "components": [
            {
              "name": "sender",
              "type": "address"
            },
            {
              "name": "multihash",
              "type": "bytes"
            },
            {
              "name": "timestamp",
              "type": "uint32"
            },
            {
              "name": "ctype",
              "type": "uint256"
            },
            {
              "name": "mid",
              "type": "bytes32"
            }
          ],
          "name": "",
          "type": "tuple"
        }
      ],
      "payable": false,
      "stateMutability": "view",
      "type": "function"
    },
    {
      "constant": false,
      "inputs": [
        {
          "name": "addr",
          "type": "address"
        },
        {
          "name": "nickname",
          "type": "bytes"
        }
      ],
      "name": "set_nickname",
      "outputs": [],
      "payable": false,
      "stateMutability": "nonpayable",
      "type": "function"
    },
    {
      "constant": false,
      "inputs": [
        {
          "name": "addr",
          "type": "address"
        },
        {
          "name": "status",
          "type": "bool"
        }
      ],
      "name": "set_status",
      "outputs": [],
      "payable": false,
      "stateMutability": "nonpayable",
      "type": "function"
    },
    {
      "constant": false,
      "inputs": [
        {
          "name": "addr",
          "type": "address"
        },
        {
          "name": "sex",
          "type": "bool"
        }
      ],
      "name": "set_sex",
      "outputs": [],
      "payable": false,
      "stateMutability": "nonpayable",
      "type": "function"
    },
    {
      "constant": false,
      "inputs": [
        {
          "name": "addr",
          "type": "address"
        },
        {
          "name": "nickname",
          "type": "bytes"
        },
        {
          "name": "status",
          "type": "bool"
        },
        {
          "name": "sex",
          "type": "bool"
        }
      ],
      "name": "register_user",
      "outputs": [],
      "payable": false,
      "stateMutability": "nonpayable",
      "type": "function"
    },
    {
      "constant": false,
      "inputs": [
        {
          "name": "user2",
          "type": "address"
        },
        {
          "name": "timestamp",
          "type": "uint32"
        }
      ],
      "name": "register_channel",
      "outputs": [
        {
          "name": "",
          "type": "bool"
        }
      ],
      "payable": false,
      "stateMutability": "nonpayable",
      "type": "function"
    },
    {
      "constant": false,
      "inputs": [
        {
          "name": "cid",
          "type": "bytes32"
        }
      ],
      "name": "delete_channel",
      "outputs": [
        {
          "name": "",
          "type": "bool"
        }
      ],
      "payable": false,
      "stateMutability": "nonpayable",
      "type": "function"
    },
    {
      "constant": false,
      "inputs": [
        {
          "name": "cid",
          "type": "bytes32"
        }
      ],
      "name": "approve_channel",
      "outputs": [
        {
          "name": "",
          "type": "bool"
        }
      ],
      "payable": false,
      "stateMutability": "nonpayable",
      "type": "function"
    },
    {
      "constant": false,
      "inputs": [
        {
          "name": "multihash",
          "type": "bytes"
        },
        {
          "name": "timestamp",
          "type": "uint32"
        },
        {
          "name": "ctype",
          "type": "uint256"
        }
      ],
      "name": "send_msg",
      "outputs": [
        {
          "name": "",
          "type": "bool"
        }
      ],
      "payable": false,
      "stateMutability": "nonpayable",
      "type": "function"
    }
  ],
  "bytecode": "0x608060405261001c33610021640100000000026401000000009004565b610062565b600060405180807f6f72672e7a657070656c696e6f732e70726f78792e6f776e6572000000000000815250601a019050604051809103902090508181555050565b612b35806100716000396000f30060806040526004361061011d576000357c0100000000000000000000000000000000000000000000000000000000900463ffffffff168063025313a21461018c5780630fa42bda146101b75780631fe14c4a146101f85780633659cfe6146102215780633b4e84811461024a578063403320d3146102875780634f1ef286146102b05780635c60da1b146102cc57806363c12139146102f757806368cdf5e21461033457806371ad7221146103715780637599303e146103ae5780637a7ebd7b146103d75780638bbd254e146104185780638ffb72f414610455578063a87430ba14610492578063ad72b2db146104d2578063ce45d9871461050f578063e58fb4521461054c578063f1739cae14610575578063f71b767f1461059e575b60006101276105db565b9050600073ffffffffffffffffffffffffffffffffffffffff168173ffffffffffffffffffffffffffffffffffffffff161415151561016557600080fd5b60405136600082376000803683855af43d806000843e8160008114610188578184f35b8184fd5b34801561019857600080fd5b506101a1610644565b6040516101ae919061275f565b60405180910390f35b3480156101c357600080fd5b506101de60048036036101d99190810190612436565b610687565b6040516101ef9594939291906127f6565b60405180910390f35b34801561020457600080fd5b5061021f600480360361021a91908101906122ef565b610785565b005b34801561022d57600080fd5b506102486004803603610243919081019061228a565b6107df565b005b34801561025657600080fd5b50610271600480360361026c9190810190612436565b61082c565b60405161027e91906128f4565b60405180910390f35b34801561029357600080fd5b506102ae60048036036102a99190810190612343565b6109bd565b005b6102ca60048036036102c591908101906122ef565b610b19565b005b3480156102d857600080fd5b506102e16105db565b6040516102ee919061275f565b60405180910390f35b34801561030357600080fd5b5061031e60048036036103199190810190612436565b610bfa565b60405161032b9190612916565b60405180910390f35b34801561034057600080fd5b5061035b600480360361035691908101906123fa565b610d6a565b6040516103689190612872565b60405180910390f35b34801561037d57600080fd5b506103986004803603610393919081019061228a565b611174565b6040516103a59190612938565b60405180910390f35b3480156103ba57600080fd5b506103d560048036036103d091908101906122b3565b6112b7565b005b3480156103e357600080fd5b506103fe60048036036103f99190810190612436565b611314565b60405161040f9594939291906127a3565b60405180910390f35b34801561042457600080fd5b5061043f600480360361043a9190810190612436565b6113a7565b60405161044c9190612872565b60405180910390f35b34801561046157600080fd5b5061047c600480360361047791908101906123be565b61163b565b604051610489919061288d565b60405180910390f35b34801561049e57600080fd5b506104b960048036036104b4919081019061228a565b61166b565b6040516104c994939291906128a8565b60405180910390f35b3480156104de57600080fd5b506104f960048036036104f4919081019061228a565b61174d565b6040516105069190612850565b60405180910390f35b34801561051b57600080fd5b506105366004803603610531919081019061245f565b6117e8565b6040516105439190612872565b60405180910390f35b34801561055857600080fd5b50610573600480360361056e91908101906122b3565b611b78565b005b34801561058157600080fd5b5061059c6004803603610597919081019061228a565b611bd5565b005b3480156105aa57600080fd5b506105c560048036036105c09190810190612436565b611c9e565b6040516105d29190612872565b60405180910390f35b60008060405180807f6f72672e7a657070656c696e6f732e70726f78792e696d706c656d656e74617481526020017f696f6e0000000000000000000000000000000000000000000000000000000000815250602301905060405180910390209050805491505090565b60008060405180807f6f72672e7a657070656c696e6f732e70726f78792e6f776e6572000000000000815250601a01905060405180910390209050805491505090565b60026020528060005260406000206000915090508060000160009054906101000a900473ffffffffffffffffffffffffffffffffffffffff1690806001018054600181600116156101000203166002900480601f0160208091040260200160405190810160405280929190818152602001828054600181600116156101000203166002900480156107595780601f1061072e57610100808354040283529160200191610759565b820191906000526020600020905b81548152906001019060200180831161073c57829003601f168201915b5050505050908060020160009054906101000a900463ffffffff16908060030154908060040154905085565b806000808473ffffffffffffffffffffffffffffffffffffffff1673ffffffffffffffffffffffffffffffffffffffff16815260200190815260200160002060000190805190602001906107da929190611f25565b505050565b6107e7610644565b73ffffffffffffffffffffffffffffffffffffffff163373ffffffffffffffffffffffffffffffffffffffff1614151561082057600080fd5b61082981611de6565b50565b610834611fa5565b60016000836000191660001916815260200190815260200160002060c060405190810160405290816000820160009054906101000a900473ffffffffffffffffffffffffffffffffffffffff1673ffffffffffffffffffffffffffffffffffffffff1673ffffffffffffffffffffffffffffffffffffffff1681526020016001820160009054906101000a900473ffffffffffffffffffffffffffffffffffffffff1673ffffffffffffffffffffffffffffffffffffffff1673ffffffffffffffffffffffffffffffffffffffff1681526020016002820154600019166000191681526020016003820160009054906101000a900460ff161515151581526020016003820160019054906101000a900463ffffffff1663ffffffff1663ffffffff168152602001600482018054806020026020016040519081016040528092919081815260200182805480156109ad57602002820191906000526020600020905b81546000191681526020019060010190808311610995575b5050505050815250509050919050565b826000808673ffffffffffffffffffffffffffffffffffffffff1673ffffffffffffffffffffffffffffffffffffffff1681526020019081526020016000206000019080519060200190610a12929190611f25565b50816000808673ffffffffffffffffffffffffffffffffffffffff1673ffffffffffffffffffffffffffffffffffffffff16815260200190815260200160002060010160006101000a81548160ff021916908315150217905550806000808673ffffffffffffffffffffffffffffffffffffffff1673ffffffffffffffffffffffffffffffffffffffff16815260200190815260200160002060010160016101000a81548160ff02191690831515021790555060006001026000808673ffffffffffffffffffffffffffffffffffffffff1673ffffffffffffffffffffffffffffffffffffffff168152602001908152602001600020600201816000191690555050505050565b610b21610644565b73ffffffffffffffffffffffffffffffffffffffff163373ffffffffffffffffffffffffffffffffffffffff16141515610b5a57600080fd5b610b63826107df565b3073ffffffffffffffffffffffffffffffffffffffff16348260405180828051906020019080838360005b83811015610ba9578082015181840152602081019050610b8e565b50505050905090810190601f168015610bd65780820380516001836020036101000a031916815260200191505b5091505060006040518083038185875af1925050501515610bf657600080fd5b5050565b610c02612013565b60026000836000191660001916815260200190815260200160002060a060405190810160405290816000820160009054906101000a900473ffffffffffffffffffffffffffffffffffffffff1673ffffffffffffffffffffffffffffffffffffffff1673ffffffffffffffffffffffffffffffffffffffff168152602001600182018054600181600116156101000203166002900480601f016020809104026020016040519081016040528092919081815260200182805460018160011615610100020316600290048015610d185780601f10610ced57610100808354040283529160200191610d18565b820191906000526020600020905b815481529060010190602001808311610cfb57829003601f168201915b505050505081526020016002820160009054906101000a900463ffffffff1663ffffffff1663ffffffff1681526020016003820154815260200160048201546000191660001916815250509050919050565b6000610d74611fa5565b60006001026000803373ffffffffffffffffffffffffffffffffffffffff1673ffffffffffffffffffffffffffffffffffffffff1681526020019081526020016000206002015460001916141515610dcb57600080fd5b33816000019073ffffffffffffffffffffffffffffffffffffffff16908173ffffffffffffffffffffffffffffffffffffffff168152505083816020019073ffffffffffffffffffffffffffffffffffffffff16908173ffffffffffffffffffffffffffffffffffffffff168152505080600001518160200151604051602001808373ffffffffffffffffffffffffffffffffffffffff1673ffffffffffffffffffffffffffffffffffffffff166c010000000000000000000000000281526014018273ffffffffffffffffffffffffffffffffffffffff1673ffffffffffffffffffffffffffffffffffffffff166c01000000000000000000000000028152601401925050506040516020818303038152906040526040518082805190602001908083835b602083101515610f165780518252602082019150602081019050602083039250610ef1565b6001836020036101000a038019825116818451168082178552505050505050905001915050604051809103902081604001906000191690816000191681525050600081606001901515908115158152505082816080019063ffffffff16908163ffffffff1681525050806001600083604001516000191660001916815260200190815260200160002060008201518160000160006101000a81548173ffffffffffffffffffffffffffffffffffffffff021916908373ffffffffffffffffffffffffffffffffffffffff16021790555060208201518160010160006101000a81548173ffffffffffffffffffffffffffffffffffffffff021916908373ffffffffffffffffffffffffffffffffffffffff1602179055506040820151816002019060001916905560608201518160030160006101000a81548160ff02191690831515021790555060808201518160030160016101000a81548163ffffffff021916908363ffffffff16021790555060a08201518160040190805190602001906110a0929190612062565b5090505080604001516000803373ffffffffffffffffffffffffffffffffffffffff1673ffffffffffffffffffffffffffffffffffffffff168152602001908152602001600020600201816000191690555060036000826020015173ffffffffffffffffffffffffffffffffffffffff1673ffffffffffffffffffffffffffffffffffffffff16815260200190815260200160002081604001519080600181540180825580915050906001820390600052602060002001600090919290919091509060001916905550600191505092915050565b61117c6120b5565b6000808373ffffffffffffffffffffffffffffffffffffffff1673ffffffffffffffffffffffffffffffffffffffff16815260200190815260200160002060806040519081016040529081600082018054600181600116156101000203166002900480601f01602080910402602001604051908101604052809291908181526020018280546001816001161561010002031660029004801561125f5780601f106112345761010080835404028352916020019161125f565b820191906000526020600020905b81548152906001019060200180831161124257829003601f168201915b505050505081526020016001820160009054906101000a900460ff161515151581526020016001820160019054906101000a900460ff1615151515815260200160028201546000191660001916815250509050919050565b806000808473ffffffffffffffffffffffffffffffffffffffff1673ffffffffffffffffffffffffffffffffffffffff16815260200190815260200160002060010160016101000a81548160ff0219169083151502179055505050565b60016020528060005260406000206000915090508060000160009054906101000a900473ffffffffffffffffffffffffffffffffffffffff16908060010160009054906101000a900473ffffffffffffffffffffffffffffffffffffffff16908060020154908060030160009054906101000a900460ff16908060030160019054906101000a900463ffffffff16905085565b60003373ffffffffffffffffffffffffffffffffffffffff1660016000846000191660001916815260200190815260200160002060010160009054906101000a900473ffffffffffffffffffffffffffffffffffffffff1673ffffffffffffffffffffffffffffffffffffffff1614801561146a575060006001026000803373ffffffffffffffffffffffffffffffffffffffff1673ffffffffffffffffffffffffffffffffffffffff1681526020019081526020016000206002015460001916145b151561147557600080fd5b6001806000846000191660001916815260200190815260200160002060030160006101000a81548160ff02191690831515021790555060016000803373ffffffffffffffffffffffffffffffffffffffff1673ffffffffffffffffffffffffffffffffffffffff16815260200190815260200160002060010160006101000a81548160ff021916908315150217905550600160008060016000866000191660001916815260200190815260200160002060000160009054906101000a900473ffffffffffffffffffffffffffffffffffffffff1673ffffffffffffffffffffffffffffffffffffffff1673ffffffffffffffffffffffffffffffffffffffff16815260200190815260200160002060010160006101000a81548160ff021916908315150217905550816000803373ffffffffffffffffffffffffffffffffffffffff1673ffffffffffffffffffffffffffffffffffffffff1681526020019081526020016000206002018160001916905550600360003373ffffffffffffffffffffffffffffffffffffffff1673ffffffffffffffffffffffffffffffffffffffff168152602001908152602001600020600061163291906120e5565b60019050919050565b60036020528160005260406000208181548110151561165657fe5b90600052602060002001600091509150505481565b6000602052806000526040600020600091509050806000018054600181600116156101000203166002900480601f0160208091040260200160405190810160405280929190818152602001828054600181600116156101000203166002900480156117175780601f106116ec57610100808354040283529160200191611717565b820191906000526020600020905b8154815290600101906020018083116116fa57829003601f168201915b5050505050908060010160009054906101000a900460ff16908060010160019054906101000a900460ff16908060020154905084565b6060600360008373ffffffffffffffffffffffffffffffffffffffff1673ffffffffffffffffffffffffffffffffffffffff1681526020019081526020016000208054806020026020016040519081016040528092919081815260200182805480156117dc57602002820191906000526020600020905b815460001916815260200190600101908083116117c4575b50505050509050919050565b60006117f2612013565b60006001026000803373ffffffffffffffffffffffffffffffffffffffff1673ffffffffffffffffffffffffffffffffffffffff16815260200190815260200160002060020154600019161415151561184a57600080fd5b33816000019073ffffffffffffffffffffffffffffffffffffffff16908173ffffffffffffffffffffffffffffffffffffffff168152505084816020018190525083816040019063ffffffff16908163ffffffff168152505082816060018181525050806000015181602001518260400151604051602001808473ffffffffffffffffffffffffffffffffffffffff1673ffffffffffffffffffffffffffffffffffffffff166c0100000000000000000000000002815260140183805190602001908083835b6020831015156119355780518252602082019150602081019050602083039250611910565b6001836020036101000a0380198251168184511680821785525050505050509050018263ffffffff1663ffffffff167c010000000000000000000000000000000000000000000000000000000002815260040193505050506040516020818303038152906040526040518082805190602001908083835b6020831015156119d157805182526020820191506020810190506020830392506119ac565b6001836020036101000a038019825116818451168082178552505050505050905001915050604051809103902081608001906000191690816000191681525050806002600083608001516000191660001916815260200190815260200160002060008201518160000160006101000a81548173ffffffffffffffffffffffffffffffffffffffff021916908373ffffffffffffffffffffffffffffffffffffffff1602179055506020820151816001019080519060200190611a94929190612106565b5060408201518160020160006101000a81548163ffffffff021916908363ffffffff1602179055506060820151816003015560808201518160040190600019169055905050600160008060003373ffffffffffffffffffffffffffffffffffffffff1673ffffffffffffffffffffffffffffffffffffffff16815260200190815260200160002060020154600019166000191681526020019081526020016000206004018160800151908060018154018082558091505090600182039060005260206000200160009091929091909150906000191690555060019150509392505050565b806000808473ffffffffffffffffffffffffffffffffffffffff1673ffffffffffffffffffffffffffffffffffffffff16815260200190815260200160002060010160006101000a81548160ff0219169083151502179055505050565b611bdd610644565b73ffffffffffffffffffffffffffffffffffffffff163373ffffffffffffffffffffffffffffffffffffffff16141515611c1657600080fd5b600073ffffffffffffffffffffffffffffffffffffffff168173ffffffffffffffffffffffffffffffffffffffff1614151515611c5257600080fd5b7f5a3e66efaa1e445ebd894728a69d6959842ea1e97bd79b892797106e270efcd9611c7b610644565b82604051611c8a92919061277a565b60405180910390a1611c9b81611e7d565b50565b60008060016000846000191660001916815260200190815260200160002060030160006101000a81548160ff02191690831515021790551515611ce057600080fd5b600160008360001916600019168152602001908152602001600020600080820160006101000a81549073ffffffffffffffffffffffffffffffffffffffff02191690556001820160006101000a81549073ffffffffffffffffffffffffffffffffffffffff021916905560028201600090556003820160006101000a81549060ff02191690556003820160016101000a81549063ffffffff0219169055600482016000611d8d91906120e5565b505060006001026000803373ffffffffffffffffffffffffffffffffffffffff1673ffffffffffffffffffffffffffffffffffffffff168152602001908152602001600020600201816000191690555060019050919050565b6000611df06105db565b90508173ffffffffffffffffffffffffffffffffffffffff168173ffffffffffffffffffffffffffffffffffffffff1614151515611e2d57600080fd5b611e3682611ebe565b8173ffffffffffffffffffffffffffffffffffffffff167fbc7cd75a20ee27fd9adebab32041f755214dbc6bffa90cc0225b39da2e5c2d3b60405160405180910390a25050565b600060405180807f6f72672e7a657070656c696e6f732e70726f78792e6f776e6572000000000000815250601a019050604051809103902090508181555050565b600060405180807f6f72672e7a657070656c696e6f732e70726f78792e696d706c656d656e74617481526020017f696f6e00000000000000000000000000000000000000000000000000000000008152506023019050604051809103902090508181555050565b828054600181600116156101000203166002900490600052602060002090601f016020900481019282601f10611f6657805160ff1916838001178555611f94565b82800160010185558215611f94579182015b82811115611f93578251825591602001919060010190611f78565b5b509050611fa19190612186565b5090565b60c060405190810160405280600073ffffffffffffffffffffffffffffffffffffffff168152602001600073ffffffffffffffffffffffffffffffffffffffff16815260200160008019168152602001600015158152602001600063ffffffff168152602001606081525090565b60a060405190810160405280600073ffffffffffffffffffffffffffffffffffffffff16815260200160608152602001600063ffffffff16815260200160008152602001600080191681525090565b8280548282559060005260206000209081019282156120a4579160200282015b828111156120a3578251829060001916905591602001919060010190612082565b5b5090506120b191906121ab565b5090565b60806040519081016040528060608152602001600015158152602001600015158152602001600080191681525090565b508054600082559060005260206000209081019061210391906121ab565b50565b828054600181600116156101000203166002900490600052602060002090601f016020900481019282601f1061214757805160ff1916838001178555612175565b82800160010185558215612175579182015b82811115612174578251825591602001919060010190612159565b5b5090506121829190612186565b5090565b6121a891905b808211156121a457600081600090555060010161218c565b5090565b90565b6121cd91905b808211156121c95760008160009055506001016121b1565b5090565b90565b60006121dc8235612a58565b905092915050565b60006121f08235612a78565b905092915050565b60006122048235612a84565b905092915050565b600082601f830112151561221f57600080fd5b813561223261222d82612987565b61295a565b9150808252602083016020830185838301111561224e57600080fd5b612259838284612aa8565b50505092915050565b600061226e8235612a8e565b905092915050565b60006122828235612a98565b905092915050565b60006020828403121561229c57600080fd5b60006122aa848285016121d0565b91505092915050565b600080604083850312156122c657600080fd5b60006122d4858286016121d0565b92505060206122e5858286016121e4565b9150509250929050565b6000806040838503121561230257600080fd5b6000612310858286016121d0565b925050602083013567ffffffffffffffff81111561232d57600080fd5b6123398582860161220c565b9150509250929050565b6000806000806080858703121561235957600080fd5b6000612367878288016121d0565b945050602085013567ffffffffffffffff81111561238457600080fd5b6123908782880161220c565b93505060406123a1878288016121e4565b92505060606123b2878288016121e4565b91505092959194509250565b600080604083850312156123d157600080fd5b60006123df858286016121d0565b92505060206123f085828601612262565b9150509250929050565b6000806040838503121561240d57600080fd5b600061241b858286016121d0565b925050602061242c85828601612276565b9150509250929050565b60006020828403121561244857600080fd5b6000612456848285016121f8565b91505092915050565b60008060006060848603121561247457600080fd5b600084013567ffffffffffffffff81111561248e57600080fd5b61249a8682870161220c565b93505060206124ab86828701612276565b92505060406124bc86828701612262565b9150509250925092565b6124cf81612a08565b82525050565b60006124e0826129d8565b8084526020840193506124f2836129c0565b60005b828110156125245761250886835161259a565b612511826129fb565b91506020860195506001810190506124f5565b50849250505092915050565b600061253b826129cd565b80845260208401935061254d836129b3565b60005b8281101561257f5761256386835161259a565b61256c826129ee565b9150602086019550600181019050612550565b50849250505092915050565b61259481612a28565b82525050565b6125a381612a34565b82525050565b60006125b4826129e3565b8084526125c8816020860160208601612ab7565b6125d181612aea565b602085010191505092915050565b600060c0830160008301516125f760008601826124c6565b50602083015161260a60208601826124c6565b50604083015161261d604086018261259a565b506060830151612630606086018261258b565b5060808301516126436080860182612750565b5060a083015184820360a086015261265b8282612530565b9150508091505092915050565b600060a08301600083015161268060008601826124c6565b506020830151848203602086015261269882826125a9565b91505060408301516126ad6040860182612750565b5060608301516126c06060860182612741565b5060808301516126d3608086018261259a565b508091505092915050565b600060808301600083015184820360008601526126fb82826125a9565b9150506020830151612710602086018261258b565b506040830151612723604086018261258b565b506060830151612736606086018261259a565b508091505092915050565b61274a81612a3e565b82525050565b61275981612a48565b82525050565b600060208201905061277460008301846124c6565b92915050565b600060408201905061278f60008301856124c6565b61279c60208301846124c6565b9392505050565b600060a0820190506127b860008301886124c6565b6127c560208301876124c6565b6127d2604083018661259a565b6127df606083018561258b565b6127ec6080830184612750565b9695505050505050565b600060a08201905061280b60008301886124c6565b818103602083015261281d81876125a9565b905061282c6040830186612750565b6128396060830185612741565b612846608083018461259a565b9695505050505050565b6000602082019050818103600083015261286a81846124d5565b905092915050565b6000602082019050612887600083018461258b565b92915050565b60006020820190506128a2600083018461259a565b92915050565b600060808201905081810360008301526128c281876125a9565b90506128d1602083018661258b565b6128de604083018561258b565b6128eb606083018461259a565b95945050505050565b6000602082019050818103600083015261290e81846125df565b905092915050565b600060208201905081810360008301526129308184612668565b905092915050565b6000602082019050818103600083015261295281846126de565b905092915050565b6000604051905081810181811067ffffffffffffffff8211171561297d57600080fd5b8060405250919050565b600067ffffffffffffffff82111561299e57600080fd5b601f19601f8301169050602081019050919050565b6000602082019050919050565b6000602082019050919050565b600081519050919050565b600081519050919050565b600081519050919050565b6000602082019050919050565b6000602082019050919050565b600073ffffffffffffffffffffffffffffffffffffffff82169050919050565b60008115159050919050565b6000819050919050565b6000819050919050565b600063ffffffff82169050919050565b600073ffffffffffffffffffffffffffffffffffffffff82169050919050565b60008115159050919050565b6000819050919050565b6000819050919050565b600063ffffffff82169050919050565b82818337600083830152505050565b60005b83811015612ad5578082015181840152602081019050612aba565b83811115612ae4576000848401525b50505050565b6000601f19601f83011690509190505600a265627a7a7230582097c6604c6b8a1ea132f47f814fda4945efc134276a74dbaca7aca797cd0172626c6578706572696d656e74616cf50037",
  "source": "pragma solidity >= 0.4.24;\npragma experimental ABIEncoderV2;\n\nimport \"./LoveDiaryStorage.sol\";\n\ncontract LoveDiaryLogicV0 is LoveDiaryStorage {\n\t\n\t// getters\n\tfunction get_user(address addr) public view returns (User) {\n\t\treturn users[addr];\n\t}\n\n\tfunction get_invitations(address addr) public view returns (bytes32[]) {\n\t\treturn invitations[addr];\n\t}\n\n\tfunction get_channel(bytes32 cid) public view returns (Channel) {\n\t\treturn channels[cid];\n\t}\n\n\tfunction get_msg(bytes32 mid) public view returns (Message) {\n\t\treturn msgs[mid];\n\t}\n\n\t// setters\n\tfunction set_nickname(address addr, bytes nickname) public {\n\t\tusers[addr].nickname = nickname;\n\t}\n\n\tfunction set_status(address addr, bool status) public {\n\t\tusers[addr].status = status;\n\t}\n\n\tfunction set_sex(address addr, bool sex) public {\n\t\tusers[addr].sex = sex;\n\t}\n\n\tfunction register_user(address addr, bytes nickname, bool status, bool sex) public {\n\t\tusers[addr].nickname = nickname;\n\t\tusers[addr].status = status;\n\t\tusers[addr].sex = sex;\n\t\tusers[addr].cid = 0x0;\n\t}\n\n\t// logic\n\t// register channel\n\tfunction register_channel(address user2, uint32 timestamp) public returns (bool) {\n\t\trequire(users[msg.sender].cid == 0x0);\n\n\t\tChannel memory c;\n\t\tc.user1 = msg.sender;\n\t\tc.user2 = user2;\n\t\tc.cid = keccak256(abi.encodePacked(c.user1, c.user2));\n\t\tc.status = false;\n\t\tc.timestamp = timestamp;\n\n\t\tchannels[c.cid] = c;\n\t\tusers[msg.sender].cid = c.cid;\n\n\t\tinvitations[c.user2].push(c.cid);\n\t\treturn true;\n\t}\n\n\t// delete inactive channel(not approved by user2)\n\tfunction delete_channel(bytes32 cid) public returns (bool) {\n\t\trequire(channels[cid].status = false);\n\t\tdelete channels[cid];\n\t\tusers[msg.sender].cid = 0x0;\n\t\treturn true;\n\t}\n\n\t// approve invitation\n\tfunction approve_channel(bytes32 cid) public returns (bool) {\n\t\trequire(channels[cid].user2 == msg.sender && users[msg.sender].cid == 0x0);\n\n\t\tchannels[cid].status = true;\n\t\tusers[msg.sender].status = true;\n\t\tusers[channels[cid].user1].status = true;\n\t\tusers[msg.sender].cid = cid;\n\t\tdelete invitations[msg.sender];\n\t\treturn true;\n\t}\n\n\t// send message\n\tfunction send_msg(bytes multihash, uint32 timestamp, uint ctype) public returns (bool) {\n\t\trequire(users[msg.sender].cid != 0x0);\n\n\t\tMessage memory m;\n\t\tm.sender = msg.sender;\n\t\tm.multihash = multihash;\n\t\tm.timestamp = timestamp;\n\t\tm.ctype = ctype;\n\t\tm.mid = keccak256(abi.encodePacked(m.sender, m.multihash, m.timestamp));\n\n\t\tmsgs[m.mid] = m;\n\t\tchannels[users[msg.sender].cid].msg_ids.push(m.mid);\n\t\treturn true;\n\t}\n}\n",
  "sourcePath": "/Users/cyan/Desktop//lovediary/contracts/LoveDiaryLogicV0.sol",
  "compiler": {
    "name": "solc",
    "version": "0.4.24+commit.e67f0147.Emscripten.clang"
  },
  "schemaVersion": "3.0.16",
  "updatedAt": "2019-12-25T08:42:56.438Z",
  "devdoc": {
    "methods": {
      "implementation()": {
        "details": "Tells the address of the current implementation",
        "return": "address of the current implementation"
      },
      "proxyOwner()": {
        "details": "Tells the address of the owner",
        "return": "the address of the owner"
      },
      "transferProxyOwnership(address)": {
        "details": "Allows the current owner to transfer control of the contract to a newOwner.",
        "params": {
          "newOwner": "The address to transfer ownership to."
        }
      },
      "upgradeTo(address)": {
        "details": "Allows the proxy owner to upgrade the current version of the proxy.",
        "params": {
          "implementation": "representing the address of the new implementation to be set."
        }
      },
      "upgradeToAndCall(address,bytes)": {
        "details": "Allows the proxy owner to upgrade the current version of the proxy and call the new implementation to initialize whatever is needed through a low level call.",
        "params": {
          "data": "represents the msg.data to bet sent in the low level call. This parameter may include the function signature of the implementation to be called with the needed payload",
          "implementation": "representing the address of the new implementation to be set."
        }
      }
    }
  },
  "userdoc": {
    "methods": {}
  }
}