{
  "contractName": "LoveDiaryStorage",
  "abi": [
    {
      "constant": true,
      "inputs": [],
      "name": "proxyOwner",
      "outputs": [
        {
          "name": "owner",
          "type": "address"
        }
      ],
      "payable": false,
      "stateMutability": "view",
      "type": "function"
    },
    {
      "constant": true,
      "inputs": [
        {
          "name": "",
          "type": "bytes32"
        }
      ],
      "name": "msgs",
      "outputs": [
        {
          "name": "sender",
          "type": "address"
        },
        {
          "name": "multihash",
          "type": "bytes"
        },
        {
          "name": "timestamp",
          "type": "uint32"
        },
        {
          "name": "ctype",
          "type": "uint256"
        },
        {
          "name": "mid",
          "type": "bytes32"
        }
      ],
      "payable": false,
      "stateMutability": "view",
      "type": "function"
    },
    {
      "constant": false,
      "inputs": [
        {
          "name": "implementation",
          "type": "address"
        }
      ],
      "name": "upgradeTo",
      "outputs": [],
      "payable": false,
      "stateMutability": "nonpayable",
      "type": "function"
    },
    {
      "constant": false,
      "inputs": [
        {
          "name": "implementation",
          "type": "address"
        },
        {
          "name": "data",
          "type": "bytes"
        }
      ],
      "name": "upgradeToAndCall",
      "outputs": [],
      "payable": true,
      "stateMutability": "payable",
      "type": "function"
    },
    {
      "constant": true,
      "inputs": [],
      "name": "implementation",
      "outputs": [
        {
          "name": "impl",
          "type": "address"
        }
      ],
      "payable": false,
      "stateMutability": "view",
      "type": "function"
    },
    {
      "constant": true,
      "inputs": [
        {
          "name": "",
          "type": "bytes32"
        }
      ],
      "name": "channels",
      "outputs": [
        {
          "name": "user1",
          "type": "address"
        },
        {
          "name": "user2",
          "type": "address"
        },
        {
          "name": "cid",
          "type": "bytes32"
        },
        {
          "name": "status",
          "type": "bool"
        },
        {
          "name": "timestamp",
          "type": "uint32"
        }
      ],
      "payable": false,
      "stateMutability": "view",
      "type": "function"
    },
    {
      "constant": true,
      "inputs": [
        {
          "name": "",
          "type": "address"
        },
        {
          "name": "",
          "type": "uint256"
        }
      ],
      "name": "invitations",
      "outputs": [
        {
          "name": "",
          "type": "bytes32"
        }
      ],
      "payable": false,
      "stateMutability": "view",
      "type": "function"
    },
    {
      "constant": true,
      "inputs": [
        {
          "name": "",
          "type": "address"
        }
      ],
      "name": "users",
      "outputs": [
        {
          "name": "nickname",
          "type": "bytes"
        },
        {
          "name": "status",
          "type": "bool"
        },
        {
          "name": "sex",
          "type": "bool"
        },
        {
          "name": "cid",
          "type": "bytes32"
        }
      ],
      "payable": false,
      "stateMutability": "view",
      "type": "function"
    },
    {
      "constant": false,
      "inputs": [
        {
          "name": "newOwner",
          "type": "address"
        }
      ],
      "name": "transferProxyOwnership",
      "outputs": [],
      "payable": false,
      "stateMutability": "nonpayable",
      "type": "function"
    },
    {
      "payable": true,
      "stateMutability": "payable",
      "type": "fallback"
    },
    {
      "anonymous": false,
      "inputs": [
        {
          "indexed": false,
          "name": "previousOwner",
          "type": "address"
        },
        {
          "indexed": false,
          "name": "newOwner",
          "type": "address"
        }
      ],
      "name": "ProxyOwnershipTransferred",
      "type": "event"
    },
    {
      "anonymous": false,
      "inputs": [
        {
          "indexed": true,
          "name": "implementation",
          "type": "address"
        }
      ],
      "name": "Upgraded",
      "type": "event"
    }
  ],
  "bytecode": "0x608060405261001c33610021640100000000026401000000009004565b610062565b600060405180807f6f72672e7a657070656c696e6f732e70726f78792e6f776e6572000000000000815250601a019050604051809103902090508181555050565b610ce8806100716000396000f300608060405260043610610099576000357c0100000000000000000000000000000000000000000000000000000000900463ffffffff168063025313a2146101085780630fa42bda1461015f5780633659cfe6146102655780634f1ef286146102a85780635c60da1b146103245780637a7ebd7b1461037b5780638ffb72f41461044c578063a87430ba146104b5578063f1739cae14610596575b60006100a36105d9565b9050600073ffffffffffffffffffffffffffffffffffffffff168173ffffffffffffffffffffffffffffffffffffffff16141515156100e157600080fd5b60405136600082376000803683855af43d806000843e8160008114610104578184f35b8184fd5b34801561011457600080fd5b5061011d610642565b604051808273ffffffffffffffffffffffffffffffffffffffff1673ffffffffffffffffffffffffffffffffffffffff16815260200191505060405180910390f35b34801561016b57600080fd5b5061018e6004803603810190808035600019169060200190929190505050610685565b604051808673ffffffffffffffffffffffffffffffffffffffff1673ffffffffffffffffffffffffffffffffffffffff168152602001806020018563ffffffff1663ffffffff1681526020018481526020018360001916600019168152602001828103825286818151815260200191508051906020019080838360005b8381101561022657808201518184015260208101905061020b565b50505050905090810190601f1680156102535780820380516001836020036101000a031916815260200191505b50965050505050505060405180910390f35b34801561027157600080fd5b506102a6600480360381019080803573ffffffffffffffffffffffffffffffffffffffff169060200190929190505050610783565b005b610322600480360381019080803573ffffffffffffffffffffffffffffffffffffffff169060200190929190803590602001908201803590602001908080601f01602080910402602001604051908101604052809392919081815260200183838082843782019150505050505091929192905050506107d0565b005b34801561033057600080fd5b506103396105d9565b604051808273ffffffffffffffffffffffffffffffffffffffff1673ffffffffffffffffffffffffffffffffffffffff16815260200191505060405180910390f35b34801561038757600080fd5b506103aa60048036038101908080356000191690602001909291905050506108b1565b604051808673ffffffffffffffffffffffffffffffffffffffff1673ffffffffffffffffffffffffffffffffffffffff1681526020018573ffffffffffffffffffffffffffffffffffffffff1673ffffffffffffffffffffffffffffffffffffffff1681526020018460001916600019168152602001831515151581526020018263ffffffff1663ffffffff1681526020019550505050505060405180910390f35b34801561045857600080fd5b50610497600480360381019080803573ffffffffffffffffffffffffffffffffffffffff16906020019092919080359060200190929190505050610944565b60405180826000191660001916815260200191505060405180910390f35b3480156104c157600080fd5b506104f6600480360381019080803573ffffffffffffffffffffffffffffffffffffffff169060200190929190505050610974565b604051808060200185151515158152602001841515151581526020018360001916600019168152602001828103825286818151815260200191508051906020019080838360005b8381101561055857808201518184015260208101905061053d565b50505050905090810190601f1680156105855780820380516001836020036101000a031916815260200191505b509550505050505060405180910390f35b3480156105a257600080fd5b506105d7600480360381019080803573ffffffffffffffffffffffffffffffffffffffff169060200190929190505050610a56565b005b60008060405180807f6f72672e7a657070656c696e6f732e70726f78792e696d706c656d656e74617481526020017f696f6e0000000000000000000000000000000000000000000000000000000000815250602301905060405180910390209050805491505090565b60008060405180807f6f72672e7a657070656c696e6f732e70726f78792e6f776e6572000000000000815250601a01905060405180910390209050805491505090565b60026020528060005260406000206000915090508060000160009054906101000a900473ffffffffffffffffffffffffffffffffffffffff1690806001018054600181600116156101000203166002900480601f0160208091040260200160405190810160405280929190818152602001828054600181600116156101000203166002900480156107575780601f1061072c57610100808354040283529160200191610757565b820191906000526020600020905b81548152906001019060200180831161073a57829003601f168201915b5050505050908060020160009054906101000a900463ffffffff16908060030154908060040154905085565b61078b610642565b73ffffffffffffffffffffffffffffffffffffffff163373ffffffffffffffffffffffffffffffffffffffff161415156107c457600080fd5b6107cd81610b7d565b50565b6107d8610642565b73ffffffffffffffffffffffffffffffffffffffff163373ffffffffffffffffffffffffffffffffffffffff1614151561081157600080fd5b61081a82610783565b3073ffffffffffffffffffffffffffffffffffffffff16348260405180828051906020019080838360005b83811015610860578082015181840152602081019050610845565b50505050905090810190601f16801561088d5780820380516001836020036101000a031916815260200191505b5091505060006040518083038185875af19250505015156108ad57600080fd5b5050565b60016020528060005260406000206000915090508060000160009054906101000a900473ffffffffffffffffffffffffffffffffffffffff16908060010160009054906101000a900473ffffffffffffffffffffffffffffffffffffffff16908060020154908060030160009054906101000a900460ff16908060030160019054906101000a900463ffffffff16905085565b60036020528160005260406000208181548110151561095f57fe5b90600052602060002001600091509150505481565b6000602052806000526040600020600091509050806000018054600181600116156101000203166002900480601f016020809104026020016040519081016040528092919081815260200182805460018160011615610100020316600290048015610a205780601f106109f557610100808354040283529160200191610a20565b820191906000526020600020905b815481529060010190602001808311610a0357829003601f168201915b5050505050908060010160009054906101000a900460ff16908060010160019054906101000a900460ff16908060020154905084565b610a5e610642565b73ffffffffffffffffffffffffffffffffffffffff163373ffffffffffffffffffffffffffffffffffffffff16141515610a9757600080fd5b600073ffffffffffffffffffffffffffffffffffffffff168173ffffffffffffffffffffffffffffffffffffffff1614151515610ad357600080fd5b7f5a3e66efaa1e445ebd894728a69d6959842ea1e97bd79b892797106e270efcd9610afc610642565b82604051808373ffffffffffffffffffffffffffffffffffffffff1673ffffffffffffffffffffffffffffffffffffffff1681526020018273ffffffffffffffffffffffffffffffffffffffff1673ffffffffffffffffffffffffffffffffffffffff1681526020019250505060405180910390a1610b7a81610c14565b50565b6000610b876105d9565b90508173ffffffffffffffffffffffffffffffffffffffff168173ffffffffffffffffffffffffffffffffffffffff1614151515610bc457600080fd5b610bcd82610c55565b8173ffffffffffffffffffffffffffffffffffffffff167fbc7cd75a20ee27fd9adebab32041f755214dbc6bffa90cc0225b39da2e5c2d3b60405160405180910390a25050565b600060405180807f6f72672e7a657070656c696e6f732e70726f78792e6f776e6572000000000000815250601a019050604051809103902090508181555050565b600060405180807f6f72672e7a657070656c696e6f732e70726f78792e696d706c656d656e74617481526020017f696f6e000000000000000000000000000000000000000000000000000000000081525060230190506040518091039020905081815550505600a165627a7a72305820bccaf199e2cb216602d9078b8c363ca1ddd97753767fba2bad2e4a86588cfa6a0029",
  "source": "pragma solidity >=0.4.24;\n\nimport \"./OwnedUpgradeabilityProxy.sol\";\n\ncontract LoveDiaryStorage is OwnedUpgradeabilityProxy {\n\t// message in channel or friend request message\n\tstruct Message {\n\t\taddress sender;\n\t\tbytes multihash;\n\t\tuint32 timestamp;\n\t\tuint ctype; // content type, 0 for string, 1 for img, 2 for video\n\t\tbytes32 mid; // message id = keccak(sender + multihash + timestamp)\n\t}\n\n\t// relationship channel\n\tstruct Channel {\n\t\taddress user1;\n\t\taddress user2;\n\t\tbytes32 cid; // channel id = keccak(user1 + user2)\n\t\tbool status; // 0 for inactive, 1 for active\n\t\tuint32 timestamp; // channel start time\n\t\tbytes32[] msg_ids; // list of message ids\n\t}\n\n\t// user info\n\tstruct User {\n\t\tbytes nickname;\n\t\tbool status; // 0 for single, else 1\n\t\tbool sex; // 0 for man, 1 for woman\n\t\tbytes32 cid; // user's relationship channel\n\t}\n\n\tmapping(address => User) public users;\n\tmapping(bytes32 => Channel) public channels;\n\tmapping(bytes32 => Message) public msgs;\n\tmapping(address => bytes32[]) public invitations; // channel invitations received\n}\n",
  "sourcePath": "/Users/cyan/Desktop/区块链与数字货币/lovediary/contracts/contracts/LoveDiaryStorage.sol",
  "compiler": {
    "name": "solc",
    "version": "0.4.24+commit.e67f0147.Emscripten.clang"
  },
  "schemaVersion": "3.0.16",
  "updatedAt": "2019-12-24T07:57:29.937Z",
  "devdoc": {
    "methods": {
      "implementation()": {
        "details": "Tells the address of the current implementation",
        "return": "address of the current implementation"
      },
      "proxyOwner()": {
        "details": "Tells the address of the owner",
        "return": "the address of the owner"
      },
      "transferProxyOwnership(address)": {
        "details": "Allows the current owner to transfer control of the contract to a newOwner.",
        "params": {
          "newOwner": "The address to transfer ownership to."
        }
      },
      "upgradeTo(address)": {
        "details": "Allows the proxy owner to upgrade the current version of the proxy.",
        "params": {
          "implementation": "representing the address of the new implementation to be set."
        }
      },
      "upgradeToAndCall(address,bytes)": {
        "details": "Allows the proxy owner to upgrade the current version of the proxy and call the new implementation to initialize whatever is needed through a low level call.",
        "params": {
          "data": "represents the msg.data to bet sent in the low level call. This parameter may include the function signature of the implementation to be called with the needed payload",
          "implementation": "representing the address of the new implementation to be set."
        }
      }
    }
  },
  "userdoc": {
    "methods": {}
  }
}